:100000000C94881B0C94B91B0C94B91B0C94B91B51
:100010000C94B91B0C94B91B0C94B91B0C94B91B10
:100020000C94B91B0C94B91B0C94B91B0C94B91B00
:100030000C94B91B0C94B91B0C94B91B0C94B91BF0
:100040000C94B91B0C94E9C10C94B91B0C94B91B0A
:100050000C94B91B0C94B91B0C94A1E70D944F019F
:100060000C94B91B0C9455440C944B440C94B91B40
:100070000C94B91B0C94B91B0C94B91B0C94B91BB0
:100080000C94CA3C0C94B91B0C94B91B0C94B91B6E
:100090000C94B91B0C94B91B0C94B91B0C94B91B90
:1000A0000C94B91B0C94B91B0C949C3C0C94B91B7C
:1000B0000C94B91B0C94B91B0C94B91B0C946E3C9A
:1000C0000C94B91B0C94B91B0C94B91B0C94B91B60
:1000D0000C94B91B0C94B91B0C94B91B0C94B91B50
:1000E0000C94B91BAD6FDF6FE16FF06FF56FAB6F05
:1000F000007078FD7BFD6AFD6EFD74FDB2FD7FFD35
:1001000083FD89FD8DFD91FD97FD9BFD9FFDB2FD5A
:10011000A5FDA9FDADFDB901150101016D0151015B
:100120002301E100BD01F500E50041012F01870138
:10013000C7002301CF0071016701084AD73B3BCEBE
:10014000016E84BCBFFDC12F3D6C74319ABD5683D6
:100150003DDA3D00C77F11BED9E4BB4C3E916BAA8E
:10016000AABE000000803F05A84CCDB2D44EB938DD
:1001700036A9020C50B9918688083CA6AAAA2ABEC4
:10018000000000803F000C947FFD0C9484790D9456
:10019000D8000C9479740C9454790C94B1C80D94D3
:1001A000E2000C945B7A0C9406D50C9483FD0C94BD
:1001B0002A950C949FFD0C9448950C94CB320C948A
:1001C0006C790D9491000C94ACB70D94AB000C9429
:1001D000F5740C943FB30C947A930C945A790C9464
:1001E000CEB40C94546E0C943E970D94A1000C94D4
:1001F00072790C94B2FD0C94AF920C94CC7F0C9459
:1002000060790D9473000C94F9880C94F06F0C9441
:10021000B0C80C949A750C94F56F0C94C1D50C94DD
:10022000ADFD0C94F8740C9495820D946E000C94B2
:1002300000700C94956F0C942F950C94F2740C94A0
:1002400066790C946EFD0D9400010C946AD30C94A5
:1002500084C10C9438750C94CF7F0C94B9320D94F2
:10026000BF000C944F740C94AB6F0C94B4C80C94F6
:100270008D740C9434970C9474D30C9495AE0C94A8
:1002800097AE0D94B5000C947E790C94B5740C94D3
:1002900074FD0C9489FD0C946F760C949C760C94F0
:1002A0007CD60D9487000C948A7C0C9452E70C94B5
:1002B0006FD30C9454950D9477090D94A2110C945E
:1002C000A5FD0C94A1740C9443750C94237C0D949F
:1002D000F6000C9490950C946AFD0D947D000C949E
:1002E00065740D94EC000C94A9FD0C94AD6F0C9406
:1002F00078FD0C94D5820C9425950C947D750C9406
:100300006B820C94F8820C948DFD0C94D7740D9430
:10031000CE000C94A1750C9491FD0C9439970C941B
:100320007BFD0C9478790C949BFD0C94C2B50C94D5
:1003300020950C94E4740C944E950C9443970C9473
:10034000E16F0C94C9740C94D27F0C944AB90C944C
:1003500014B80C9415750C9477D30C94906D0C9480
:1003600060750C943DB30C94DF6F0C947BB10C94CE
:1003700097FD0D9469000C9416740D9499004E41EC
:100380004E494E495459494E46CDCCCC3D0AD7230F
:100390003C17B7D13877CC2B329595E6241FB14F57
:1003A0000A000020410000C84200401C4620BCBE9C
:1003B0004CCA1B0E5AAEC59D74434F4D4D554E4908
:1003C000434154494F4E0044525952554E004552F4
:1003D000524F525300494E464F004543484F005339
:1003E0006C6565702E2E2E00205A3A200020593A56
:1003F000200042656420583A20003F2841296D7052
:100400006C696669636174696F6E206F7574206FC3
:100410006620626F756E64732028302E352D322E63
:1004200030292E0A003F28542961726765742061C3
:1004300063637572616379206F7574206F662062E3
:100440006F756E64732028302E30312D312E302997
:100450002E0A003F2849297465726174696F6E2005
:100460006F7574206F6620626F756E64732028311B
:100470002D3330292E0A004D65736820706F696E28
:10048000742063616E6E6F74206265207265736F95
:100490006C7665640A00436C69636B20746F20722C
:1004A0006573756D652E2E2E004E6F206D6F76650F
:1004B0002E00456E642066696C65206C6973740A51
:1004C00000426567696E2066696C65206C697374AB
:1004D0000A00286E6F2066696C6529004375727288
:1004E000656E742066696C653A2000534420707212
:1004F000696E74696E67206279746520004E6F744E
:10050000205344207072696E74696E670A002E0071
:1005100044656C6574696F6E206661696C65642CF6
:100520002046696C653A200046696C652064656CFC
:10053000657465643A002569730025696D20256935
:1005400073002569682025696D2025697300256978
:1005500064202569682025696D2025697300256957
:100560007920256964202569682025696D20256921
:1005700073005072696E742074696D653A20006F63
:10058000666600DA03D503CE03C703B903444542C8
:1005900055473A006F6B004275672032204665620E
:1005A000203237204F46462E004D4F54494F4E5F64
:1005B0004D4F44455300544845524D414C5F5052B5
:1005C0004F54454354494F4E004155544F524550A6
:1005D0004F52545F53445F5354415455530050524B
:1005E0004F4D50545F535550504F525400454D4558
:1005F0005247454E43595F50415253455200434183
:1006000053455F4C494748545F4252494748544E0E
:1006100045535300544F47474C455F4C4947485456
:100620005300534F4654574152455F504F57455220
:10063000004255494C445F50455243454E54004C8E
:100640004556454C494E475F44415441005A5F501E
:10065000524F4245004155544F4C4556454C005071
:1006600052494E545F4A4F420050524F47524553F1
:1006700053004155544F5245504F52545F54454DCD
:100680005000564F4C554D45545249430045455036
:10069000524F4D0042494E4152595F46494C455FC9
:1006A0005452414E534645520053455249414C5FC6
:1006B000584F4E5F584F4646004649524D5741529B
:1006C000455F4E414D453A4D61726C696E206275D1
:1006D000676669782D322E302E7820284769746835
:1006E00075622920534F555243455F434F44455F40
:1006F00055524C3A68747470733A2F2F6769746856
:1007000075622E636F6D2F4D61726C696E466972F2
:100710006D776172652F4D61726C696E2050524F1A
:10072000544F434F4C5F56455253494F4E3A312E2A
:1007300030204D414348494E455F545950453A4257
:100740007567203220466562203237204558545262
:10075000554445525F434F554E543A312055554903
:10076000443A63656465326132662D343161322DFD
:10077000343734382D396231322D633535633632B2
:100780006633363766660A002F2F20004D31343528
:1007900020533C696E6465783E206F7574206F66E7
:1007A0002072616E67652028302D31290A0020549F
:1007B00000205200416363656C65726174696F6EFD
:1007C0003A2050003F4A206F7574206F6620726196
:1007D0006E67652028302E303120746F20302E3324
:1007E000290A004F4646004F4E00205A002059006B
:1007F000580020204D61783A2000205A00205900EE
:10080000580020204D696E3A2000536F66742065B1
:100810006E6473746F70733A200020466C6F773A81
:10082000200050726F7465637465642050696E0AAD
:1008300000206F7574206F662072616E67650A0014
:10084000536572766F20003A200020536572766FF0
:100850002000496E76616C696420657874727564F5
:1008600065720A0020643A0020693A0020703A005C
:1008700020643A0020693A0020703A0064697300ED
:10088000656E0043290A0061626C656420286D6909
:100890006E2074656D702000436F6C642065787401
:1008A00072756465732061726520004D6573682000
:1008B000706F696E742063616E6E6F742062652064
:1008C0007265736F6C7665640A004D34323120694D
:1008D0006E636F727265637420706172616D6574AE
:1008E00065722075736167650A004F66667365748B
:1008F00073206170706C696564004572723A2054AF
:100900006F6F206661722100546F6F2066617220E4
:1009100066726F6D207265666572656E63652070C4
:100920006F696E740A00454550524F4D204F4B0A77
:10093000003F5A206F7574206F662072616E676584
:1009400020282D3520746F203230290A0050726F14
:100950006265205A204F66667365743A20003F4BEB
:100960002076616C7565206F7574206F66207261EA
:100970006E67652028302D3130292E0A00416476BB
:10098000616E6365204B3D003F285929206F7574C7
:10099000206F6620626F756E64732E0A003F2858C0
:1009A00029206F7574206F6620626F756E64732ED8
:1009B0000A003F285329205A2D53746570706572C0
:1009C00020696E64657820696E76616C69642E0AB0
:1009D00000496E76616C696420657874727564652F
:1009E000720A004572726F722077726974696E675D
:1009F00020746F20454550524F4D210A003637264E
:100A0000033B3C3D380E3F2E303E122824221E2C44
:100A10001A1C182A08440AFF4308090700014B4919
:100A20004C4C20636175736564206279204B494C9E
:100A30004C20627574746F6E2F70696E0A004B499A
:100A40004C4C2063617573656420627920746F6F0C
:100A5000206D75636820696E6163746976652074C2
:100A6000696D65202D2063757272656E7420636FE9
:100A70006D6D616E643A2000506C65617365207223
:100A800065736574005052494E5445522048414C9C
:100A9000544544004B494C4C45442E20005072694B
:100AA0006E7465722068616C7465642E206B696C6D
:100AB0006C28292063616C6C6564210A0065636899
:100AC0006F3A004572726F723A0042696C696E65E6
:100AD0006172204C6576656C696E67204772696447
:100AE0003A0A0053756264697669646564207769BF
:100AF0007468204341544D554C4C20524F4D204C6E
:100B00006576656C696E6720477269643A0A0024ED
:100B1000F4D43050C38E20C2A24017828B701112C1
:100B20007A910D816CD90AA861E108C758660761FE
:100B30005143061E4B5D05C145A7041A4111040926
:100B40003D9803713931034036DB0265339102D49D
:100B5000305402802E1D02632CEE01752AC501B0AF
:100B600028A001102781018F2564012B244B01E06F
:100B7000223401AC211F018D200D01801FFC008457
:100B80001EED00971DDF00B81CD200E61BC600203A
:100B90001BBC00641AB200B219A8000A19A0006AAE
:100BA000189900D117910040178B00B516840031B9
:100BB000167E00B31579003A157300C7146F0058FC
:100BC000146A00EE1366008813630025135E00C7E5
:100BD000125B006C12570015125400C111510070C5
:100BE000114F0021114B00D61049008D10470046CF
:100BF00010440002104200C00F4000800F3E00422F
:100C00000F3C00060F3B00CB0E3800930E37005C04
:100C10000E3500270E3400F30D3200C10D31009067
:100C20000D3000600D2E00320D2D00050D2C00D969
:100C30000C2B00AE0C2900850C29005C0C2700351C
:100C40000C27000E0C2600E80B2400C40B2400A087
:100C50000B23007D0B23005A0B2100390B210018B8
:100C60000B2000F80A1F00D90A1E00BB0A1E009DB7
:100C70000A1D00800A1D00630A1C00470A1B002C85
:100C80000A1B00110A1A00F7091A00DD091900C42D
:100C9000091900AB091900920917007B09180063B4
:100CA0000917004C09160036091600200916000A1B
:100CB000091500F5081500E0081400CC081400B868
:100CC000081400A4081400900813007D0812006B9B
:100CD00008130058081200460812003408110023B7
:100CE0000811001208110001081100F0071000E0BF
:100CF000071000D0071000C0071000B0070F00A1B8
:100D000007100091070E0083070F0074070F00659E
:100D1000070E0057070E0049070E003B070D002E77
:100D2000070E0020070D0013070D0006070D00F940
:100D3000060C00ED060D00E0060C00D4060C00C801
:100D4000060C00BC060C00B0060C00A4060B0099B3
:100D5000060C008D060B0082060B0077060B006C5C
:100D6000060B0061060A0057060B004C060A0042FB
:100D7000060A0038060A002E060A0024060A001A8F
:100D8000060A001006090007060A00FD050900F41E
:100D9000050900EB050900E2050900D9050900D0A5
:100DA000050900C7050900BE050900B5050800AD25
:100DB000050800A50509009C050800940508008C9D
:100DC000050800840508007C050800740508006C0F
:100DD000050700650508005D050700560508004E7B
:100DE00005070047050700400508003805070031E2
:100DF0000507002A050700230507001C0506001645
:100E00000507000F0507000805060002050700FB9F
:100E1000040600F5040700EE040600E8040600E2FC
:100E2000040700DB040600D5040600CF040600C951
:100E3000040600C3040600BD040600B7040600B1A2
:100E4000040500AC040600A6040600A00405009BEF
:100E500004060095040500900406008A0405008538
:100E6000040500800406007A04050075040500707E
:100E70000405006B04050066040500610405005CC0
:100E800004050057040500520405004D0405004800
:100E9000040500430405003E0404003A040500353F
:100EA000040500300404002C04050027040400237A
:100EB0000405001E0404001A0404001604050011B1
:100EC0000404000D040400090405000404040000E7
:100ED000040400FC030400F8030400F4030400F01D
:100EE000030400EC030400E8030400E4030400E04E
:100EF000030400DC030400D8030400D4030400D07E
:100F0000030400CC030400C8030300C5030300244A
:100F1000F404D9201BC40C5C0E9804C4095F02655C
:100F2000077101F405F900FB04B30048048700C110
:100F30000369005803550003034500BE023A0084CC
:100F400002310053022A002902250004022000E495
:100F5000011C00C8011900AF01170098011400849A
:100F6000011300710110006101100051010E0043D6
:100F7000010D0036010B002B010B0020010B0015A9
:100F80000109000C01090003010800FB000800F33F
:100F9000000800EB000700E4000600DE000600D8B1
:100FA000000600D2000600CC000500C7000500C204
:100FB000000500BD000400B9000400B5000400B144
:100FC000000400AD000400A9000400A5000300A275
:100FD0000003009F0004009B00030098000300959D
:100FE00000020093000300900003008D0002008BBC
:100FF00000030088000200860002008400030081D4
:101000000002007F0002007D0002007B00020079E8
:1010100000020077000100760002007400020072F6
:10102000000100710002006F0002006D0001006C01
:101030000002006A0001006900020067000100660A
:10104000000100650001006400020062000100610F
:10105000000100600001005F0002005D0001005C13
:101060000001005B0001005A000100590001005816
:101070000001005700010056000100550001005416
:101080000001005300000053000100520001005114
:10109000000100500001004F0001004E0000004E12
:1010A0000001004D0001004C0001004B0000004B0E
:1010B0000001004A0001004900010048000000480A
:1010C0000001004700010046000000460001004505
:1010D00000000045000100440001004300000043FF
:1010E00000010042000000420001004100000041F8
:1010F000000100400001003F0000003F0001003EF1
:101100000000003E0001003D0000003D0001003CE9
:101110000000003C0000003C0001003B0000003BE0
:101120000001003A0000003A0001003900000039D7
:1011300000010038000000380000003800010037CE
:1011400000000037000100360000003600000036C5
:1011500000010035000000350000003500010034BA
:1011600000000034000000340001003300000033B0
:1011700000000033000100320000003200000032A5
:10118000000100310000003100000031000100309A
:1011900000000030000000300001002F0000002F90
:1011A0000000002F0000002F0001002E0000002E84
:1011B0000000002E0001002D0000002D0000002D79
:1011C0000000002D0001002C0000002C0000002C6D
:1011D0000000002C0001002B0000002B0000002B61
:1011E0000000002B0001002A0000002A0000002A55
:1011F0000000002A00010029000000290000002949
:10120000000000290000002900010028000000283B
:10121000000000280000002800000028000100272E
:101220000000002700000027000000270000002722
:101230000001002600000026000000260000002615
:101240000000002600010025000000250000002508
:1012500000000025000000250000002500010024FA
:1012600000000024000000240000002400000024EE
:1012700000010023000000230000002300000023E1
:1012800000000023000000230000002300010022D2
:1012900000000022000000220000002200000022C6
:1012A00000000022000100210000002100000021B8
:1012B00000000021000000210000002100000021AA
:1012C000000100200000002000000020000000209D
:1012D000000000200000002000000020000000208E
:1012E0000001001F0000001F0000001F0000001F81
:1012F0000000001F0000001F0000001F0001001E72
:101300000000001E0000001E0000001E0000002360
:101310002C0000B8220000561800003A0F0000B858
:10132000080000B1040000710200003E010000004E
:10133000005C4300005C4300003443000050C100E7
:101340000050C10000000029002062797465733BE1
:1013500020637263200053657474696E6773205351
:10136000746F726564202800454550524F4D2064CB
:1013700061746173697A65206572726F722E0A00FA
:1013800029002062797465733B206372632000201A
:1013900073746F7265642073657474696E6773200B
:1013A000726574726965766564202800202863611F
:1013B0006C63756C6174656429210020213D2000F7
:1013C000454550524F4D20435243206D69736D6126
:1013D000746368202D202873746F7265642920005F
:1013E0002053697A653A2000496E6465783A200096
:1013F000204D61726C696E3D56363429004545506A
:10140000524F4D2076657273696F6E206D69736DF2
:10141000617463682028454550524F4D3D0020744B
:101420006F6F206C6F6E6720657874727573696F6B
:101430006E2070726576656E7465640A0020636F55
:101440006C6420657874727573696F6E2070726554
:1014500076656E7465640A0057726974696E6720F8
:10146000746F2066696C653A20002E006F70656E9F
:10147000206661696C65642C2046696C653A2000C1
:101480002E006F70656E206661696C65642C204665
:10149000696C653A200046696C652073656C65630C
:1014A0007465640A002053697A653A200046696CC5
:1014B00065206F70656E65643A20006672657368BA
:1014C00000646F696E67002066696C653A20004EA3
:1014D0006F772000454E4420535542524F55544992
:1014E0004E450A002220706F7300222070617265E1
:1014F0006E743A2200535542524F5554494E45207E
:1015000043414C4C207461726765743A22007472D6
:1015100079696E6720746F2063616C6C20737562EB
:101520002D67636F64652066696C657320776974E5
:101530006820746F6F206D616E79206C6576656CC4
:10154000732E204D4158206C6576656C2069733A86
:10155000310A00FFE0FFD11000FFFEFFD0FFE0FFE7
:10156000C1FFD1E240A0C8A6A22FF800238127AC7A
:1015700000AFFF64A5FF64FF64A4FFD0FFFE4669CF
:101580006C2E204469612E0046696C2E20446961EE
:101590002E004F6666004F6E004520696E206D6D0F
:1015A0005E3300416476616E6365204B0041647672
:1015B000616E6365204B00416476616E63656420F3
:1015C00053657474696E677300556E526574205666
:1015D00000556E526574205600556E526574206D2C
:1015E0006D00556E526574206D6D00486F70206DF2
:1015F0006D00486F70206D6D005265747261637488
:101600002020560052657472616374202056005287
:10161000657472616374206D6D00526574726163EC
:1016200074206D6D004F6666004F6E004175746FDB
:10163000526574722E00436F6E74726F6C00537437
:101640006F72652073657474696E677300426564B8
:1016500000426564004E6F7A7A6C65004E6F7A7A4C
:101660006C650046616E2073706565640046616E4E
:1016700020737065656400436F6E6669677572619B
:1016800074696F6E004C6F61642073657474696E69
:10169000677300526573746F7265206661696C735D
:1016A0006166650053746F72652073657474696E4A
:1016B000677300507265686561742041425320630E
:1016C0006F6E66005072656865617420504C4120F1
:1016D000636F6E66005265747261637400424C54AD
:1016E0006F7563680050726F6265205A204F66669E
:1016F0007365740050726F6265205A204F6666737E
:10170000657400416476616E63656420536574742A
:10171000696E6773004D61696E005072696E742066
:1017200061626F727465640053746F7020707269C7
:101730006E74004D61696E001FFFFFFFFFFFFF60C9
:101740000000000001FF400000000000FF800000DA
:101750000000007F83CF00000C303F87FF80000C2B
:10176000301F867980000C000F8C30C7838C30E7E7
:101770008C30CFC7CC31F38C30DCECEC33B98C300F
:10178000D86C6C33198C30D06C0C33198C30D86C0D
:101790000C33198C30DC6C0E3B198C30CF7C079FDE
:1017A000198C30C77C038F194000000000000260D4
:1017B0000000000000061FFFFFFFFFFFF820205081
:1017C0006C616E6E657242756666657242797465AB
:1017D000733A20002046726565204D656D6F727901
:1017E0003A2000436F6D70696C65643A204D6172F8
:1017F00020203920323031390A00207C2041757494
:10180000686F723A20527564792C20416E6574209D
:1018100041382073657474696E67730A0032303121
:10182000382D30312D323000204C617374205570CA
:1018300064617465643A20006275676669782D3268
:101840002E302E780A004D61726C696E0020536F45
:101850006674776172652052657365740A0020575B
:1018600061746368646F672052657365740A002051
:1018700042726F776E206F75742052657365740ABB
:10188000002045787465726E616C205265736574D2
:101890000A00506F77657255700A00737461727434
:1018A0000A006175746F25632E67006572726F722E
:1018B0002077726974696E6720746F2066696C6541
:1018C0000A00446F6E6520736176696E67206669F1
:1018D0006C652E0A00456E6473746F707320256307
:1018E00020256320256320256300205A3A002059D3
:1018F0003A0020583A00656E6473746F7073206804
:1019000069743A2000466C6F7700466C6F7700462A
:10191000616E20737065656420320046616E2073CD
:101920007065656420320046616E20737065656481
:1019300020310046616E207370656564203100427D
:10194000656400426564004E6F7A7A6C65004E6F84
:101950007A7A6C65005370656564005370656564E0
:10196000004D61696E0025753A25303275002530CD
:1019700032753A2530327500257564202530327570
:101980003A25303275002020202020200020202001
:1019900020001FE020102010201010201020201008
:1019A000201030300840048003001FE03FF03FF07B
:1019B0003FF01FE01FE03FF03FF03FF00FC0078017
:1019C00003003FFFF038007030FC3020FC1020781E
:1019D000102030102C00D02E31D02F7BD02F7BD078
:1019E0002E31D02C00D020301020781020FC103068
:1019F000FC303800703FFFF03FFFF0380070318658
:101A0000302387102787902F87D02F03D0203010C6
:101A10002078102078102030102F03D02F87D02767
:101A200087902387103186303800703FFFF01FFF0A
:101A3000F81FFFF80410400208200208200410409C
:101A40000820801041001041000820800410400050
:101A500000001FFFF81FFFF8202F002042403A002F
:101A600020403A007C3C3E5E2B3D3F2F5B5D3B2C93
:101A70002A225C004D3235004D3234005072696EBE
:101A8000742066726F6D20534400436F6E66696701
:101A900075726174696F6E0054656D706572617402
:101AA000757265004D6F74696F6E00526573756D68
:101AB00065207072696E74004E6F2053442063611C
:101AC00072640054756E650053746F702070726993
:101AD0006E74005061757365207072696E74004990
:101AE0006E666F2073637265656E004D6F7665205C
:101AF00058004D6F76652059004D6F7665205A006D
:101B000045787472756465720045787472756465A1
:101B100072004D6F7665205A004D6F766520590032
:101B20004D6F76652058004D6F74696F6E00446983
:101B30007361626C65207374657070657273004DBB
:101B400038340046616465204865696768740046FA
:101B500061646520486569676874004F6666004F78
:101B60006E00426564204C6576656C696E67004C5A
:101B70006576656C20626564004732380A47323901
:101B8000004175746F205A2D416C69676E004733B0
:101B900034004175746F20686F6D650047323800FE
:101BA0004D6F76652061786973004D61696E002024
:101BB0005A3A0020593A0020436F756E7420583A03
:101BC0000020453A00205A3A0020593A00583A007D
:101BD00020746F6F206C6F6E6720657874727573F8
:101BE000696F6E2070726576656E7465640A002098
:101BF000636F6C6420657874727573696F6E2070A2
:101C0000726576656E7465640A00486F6D696E670B
:101C1000206661696C656400000050C1000050C11D
:101C200000000000000048420000484200008040E0
:101C30005761726E696E673A20486F6D696E6720F2
:101C400042756D702044697669736F72203C203153
:101C50000A000202040000A0400000A040000000B2
:101C600040000069430000694300003443FFFFFF68
:101C700000000001000000010000800055555500E3
:101C80000000400033333300AAAA2A0049922400FE
:101C900000002000C7711C0099991900D145170058
:101CA000555515003BB113002449120011111100C4
:101CB000000010000F0F0F00E3380E0043790D00F5
:101CC000CCCC0C00C3300C00E8A20B0064210B004C
:101CD000AAAA0A00703D0A009DD80900427B0900AB
:101CE00092240900DCD3080088880800104208000C
:101CF00000000800F0C10700878707007550070043
:101D0000711C07003EEB0600A1BC060069900600AE
:101D100066660600703E06006118060017F40500AE
:101D200074D105005BB00500B29005006272050039
:101D30005555050078390500B81E05000505050054
:101D40004EEC040087D40400A1BD040090A7040059
:101D500049920400C17D0400EE690400C7560400E6
:101D6000444404005C3204000821040041100400D3
:101D7000000004003FF00300F8E0030026D2030057
:101D8000C3C30300CCB503003AA803000A9B0300B9
:101D9000388E0300C08103009F750300D0690300E3
:101DA000505E03001D53030034480300913D0300BF
:101DB0003333030016290300381F0300971503006F
:101DC000300C0300030303000BFA020049F1020088
:101DD000BAE802005CE002002DD802002DD002001B
:101DE00059C80200B0C0020031B90200DAB10200E5
:101DF000AAAA0200A0A30200BC9C0200FA9502005D
:101E00005C8F0200DF88020082820200457C0200B3
:101E10002776020027700200436A02007C640200F9
:101E2000D05E02003F590200C85302004F46460AE6
:101E300000466164652048656967687420004265F2
:101E400064204C6576656C696E6720004661696C3C
:101E5000656420746F20656E61626C652042656404
:101E6000204C6576656C696E670A00496E76616C18
:101E70006964206D6573682E0A0020284452595207
:101E8000554E2900473239204175746F20426564F0
:101E9000204C6576656C696E67003F20284C2C529B
:101EA0002C462C4229206F7574206F6620626F7556
:101EB0006E64732E0A003F2856296572626F73653F
:101EC000206C6576656C20697320696D706C617536
:101ED0007369626C652028302D34292E0A00426116
:101EE00064205A2076616C75650A004E6F20626925
:101EF0006C696E65617220677269640A002008204F
:101F00004661637400200820466163740020082045
:101F10004D6178002008204D6178002008204D692F
:101F20006E002008204D696E004F6666004F6E00FF
:101F30004175746F74656D7000416476616E6365A0
:101F4000642053657474696E6773005654726176C9
:101F5000206D696E005654726176206D696E005670
:101F60006D696E00566D696E00566D617820450092
:101F7000566D6178204500566D6178205A00566D87
:101F80006178205A00566D6178205900566D61784D
:101F9000205900566D6178205800566D61782058A0
:101FA00000416476616E6365642053657474696E84
:101FB000677300416D6178204500416D617820456F
:101FC00000416D6178205A00416D6178205A0041CE
:101FD0006D6178205900416D6178205900416D6133
:101FE00078205800416D6178205800412D7472614D
:101FF00076656C00412D74726176656C00412D72BE
:1020000065747261637400412D72657472616374EA
:1020100000416363656C00416363656C00416476F5
:10202000616E6365642053657474696E6773004AFA
:10203000756E6374696F6E20446576004A756E63D1
:1020400074696F6E2044657600416476616E6365E5
:10205000642053657474696E6773004573746570AA
:10206000732F6D6D004573746570732F6D6D005A1D
:1020700073746570732F6D6D005A73746570732F70
:102080006D6D005973746570732F6D6D00597374A5
:102090006570732F6D6D005873746570732F6D6D5F
:1020A000005873746570732F6D6D00416476616EB6
:1020B0006365642053657474696E677300496E6963
:1020C0007469616C697A6520454550524F4D0041F5
:1020D0006476616E6365642053657474696E6773BA
:1020E000004D34323800496E697469616C697A65F3
:1020F00020454550524F4D00526573657420424C47
:10210000546F756368004D323830205030205331A1
:10211000363000424C546F7563682053656C662DF1
:1021200054657374004D32383020503020533132B2
:10213000300046696C616D656E740054656D706544
:102140007261747572650053746570732F6D6D00E4
:102150004A65726B00416363656C65726174696F97
:102160006E0056656C6F63697479005365742068FE
:102170006F6D65206F66667365747300436F6E667E
:10218000696775726174696F6E0053746F7720426E
:102190004C546F756368004D3238302050302053F6
:1021A0003930004465706C6F7920424C546F756310
:1021B00068004D3238302050302053313000424CCE
:1021C000546F7563682053656C662D546573740095
:1021D0004D32383020503020533132300052657348
:1021E000657420424C546F756368004D323830205E
:1021F00050302053313630004D61696E00486F6DAC
:10220000652058592066697273740A00486F6D65BD
:102210002058592066697273740050726F62696E3B
:1022200067206661696C65640A0050726F62696E4E
:1022300067206661696C656400486F6D6520257371
:102240002573257320666972737400206669727342
:10225000740A005A0059005800486F6D652000222A
:1022600000556E6B6E6F776E20636F6D6D616E647F
:102270003A202200FFFDFCFAF8F6F4F2F0EEECEA68
:10228000E9E7E5E3E1E0DEDCDAD9D7D5D4D2D0CF97
:10229000CDCBCAC8C7C5C3C2C0BFBDBCBAB9B7B62B
:1022A000B4B3B2B0AFADACAAA9A8A6A5A4A2A1A090
:1022B0009E9D9C9A99989795949392908F8E8D8BD2
:1022C0008A8988878684838281807F7E7D7B7A79F4
:1022D0007877767574737271706F6E6D6C6B6A69F6
:1022E0006867666564636261605F5E5D5C5B5A59E6
:1022F00058585756555453525150504F4E4D4C4BC1
:102300004A4A4948474646454443424241403F3E87
:102310003E3D3C3B3B3A393838373635353433323D
:10232000323130302F2E2E2D2C2B2B2A29292827E5
:102330002726252524232322212120201F1E1E1D80
:102340001C1C1B1B1A19191818171616151514130F
:102350001312121111100F0F0E0E0D0D0C0C0B0A93
:102360000A0909080807070606050504040303020D
:102370000201000053544F505045442E200050722B
:10238000696E7465722073746F7070656420647513
:102390006520746F206572726F72732E20466978A3
:1023A00020746865206572726F7220616E6420759A
:1023B0007365204D39393920746F207265737461EB
:1023C00072742E202854656D706572617475726523
:1023D0002069732072657365742E205365742069BB
:1023E00074206166746572207265737461727469B9
:1023F0006E67290A0053544F502063616C6C65640A
:102400002062656361757365206F6620424C546F6E
:10241000756368206572726F72202D207265737407
:102420006172742077697468204D3939390A002047
:10243000573A004520436F6F6C696E672E2E2E0051
:10244000452048656174696E672E2E2E0020573A2C
:102450000042656420636F6F6C696E672E2E2E00DC
:102460004265642068656174696E672E2E2E0023B4
:10247000646566696E652044454641554C545F006D
:1024800000626564004B6420004B6920004B7020A3
:1024900000504944204175746F74756E65206669FB
:1024A0006E697368656421205075742074686520B6
:1024B0006C617374204B702C204B6920616E64201A
:1024C0004B6420636F6E7374616E74732066726FF9
:1024D0006D2062656C6F7720696E746F20436F6E3C
:1024E00066696775726174696F6E2E680A0050497B
:1024F00044204175746F74756E65206661696C6502
:1025000064212074696D656F75740A00453120542B
:102510004845524D414C2052554E41574159004279
:10252000656400546865726D616C2052756E6177E8
:1025300061790045312048656174696E6720666184
:10254000696C6564004265640048656174696E6722
:10255000206661696C656400504944204175746F60
:1025600074756E65206661696C6564212054656DC3
:10257000706572617475726520746F6F2068696729
:10258000680A00204B643A2000204B693A20002062
:102590004B703A20000A20436C61737369632050CA
:1025A0004944200A002054753A2000204B753A20F7
:1025B00000206D61783A2000206D696E3A2000207D
:1025C000643A200020626961733A20005049442037
:1025D0004175746F74756E652073746172740A004E
:1025E000504944204175746F74756E652066616949
:1025F0006C6564212054656D7065726174757265D7
:1026000020746F6F20686967680A00504944204150
:1026100075746F74756E65206661696C65642120E0
:10262000426164206578747275646572206E756DA0
:102630006265720A004572723A20757466382066C7
:102640006F6E74206E6F7420696E697469616C6955
:102650007A65642E004572723A2075746638206679
:102660006F6E74206E6F7420696E697469616C6935
:102670007A65642E004572723A2075746638206659
:102680006F6E74206E6F7420696E697469616C6915
:102690007A65642E0000060C00FE07022603BC01CA
:1026A0007FFE08FE08FE05080806000040F0C88806
:1026B00088987810050808060000C0F8888888887F
:1026C00088F80505050600012030F83020050808C7
:1026D0000600002070F820202020E00509090600EF
:1026E000FF2070A8A8B8888870200506060600019B
:1026F000E08CEA8C8A0A0509090600FFF8A8888898
:10270000888888A8F8050A0A0600FE205050505014
:1027100088A8A8887003030306000340A040FFFFB9
:10272000FFFFFFFFFFFFFFFFFFFFFFFFFFFFFFFFB9
:10273000FFFFFFFF0000000605FF0107070602007C
:1027400080808080800080030303060105A0A0A094
:1027500005060606000050F85050F8500509090615
:1027600000FF2070A8A07028A870200507070600A9
:1027700000C8C8102040989805070706000040A030
:10278000A040A89068010303060205808080030929
:10279000090601FF20404080808040402003090955
:1027A0000601FF80404020202040408005070706AA
:1027B000000020A8702070A8200505050600012053
:1027C00020F820200203030601FFC040800501011C
:1027D000060003F8020202060100C0C00507070652
:1027E0000000081010204040800507070600007018
:1027F0008898A8C8887003070706010040C04040B9
:102800004040E0050707060000708808102040F8E7
:10281000050707060000F80810300888700507074C
:1028200006000010305090F8101005070706000051
:10283000F880F0080888700507070600003040801F
:10284000F0888870050707060000F808101020209F
:1028500020050707060000708888708888700507C3
:1028600007060000708888780810600205050601D8
:1028700000C0C000C0C00206060601FFC0C000C004
:102880004080030505060101204080402005030328
:10289000060002F800F8030505060101804020400B
:1028A000800507070600007088102020002005071B
:1028B000070600007088B8A8B880700507070600F2
:1028C00000708888F8888888050707060000F048A7
:1028D00048704848F005070706000070888080802F
:1028E0008870050707060000F04848484848F0058A
:1028F0000707060000F88080F08080F805070706CB
:102900000000F88080F080808005070706000070D6
:10291000888080988870050707060000888888F8F6
:10292000888888030707060100E04040404040E0F7
:102930000507070600003810101010906005070703
:102940000600008890A0C0A0908805070706000038
:10295000808080808080F805070706000088D8A85E
:10296000888888880507070600008888C8A898888E
:102970008805070706000070888888888870050722
:1029800007060000F08888F08080800507070600B1
:102990000070888888A89068050707060000F088FE
:1029A00088F0A090880507070600007088807008EE
:1029B0008870050707060000F82020202020200549
:1029C000070706000088888888888870050707063A
:1029D0000000888888885050200507070600008876
:1029E000888888A8A8500507070600008888502016
:1029F000508888050707060000888850202020207E
:102A0000050707060000F80810204080F8030909B0
:102A10000601FFE080808080808080E00507070657
:102A20000000804040201010080309090601FFE063
:102A300020202020202020E0050303060005205050
:102A4000880501010600FEF8030303060105804026
:102A50002005050506000070087888780507070638
:102A600000008080F0888888F00505050600007069
:102A70008080887005070706000008087888888825
:102A8000780505050600007088F0807005070706C8
:102A90000000304840E04040400507070600FE7057
:102AA0008888887808700507070600008080F0880D
:102AB0008888880307070601004000C0404040E0C6
:102AC0000409090601FE1000301010101090600576
:102AD000070706000080808890E0908803070706BB
:102AE0000100C04040404040E0050505060000D020
:102AF000A8A8A8A8050505060000B0C8888888050C
:102B0000050506000070888888700507070600FE26
:102B1000F0888888F080800507070600FE7888889E
:102B200088780808050505060000B0C88080800583
:102B3000050506000078807008F00507070600000C
:102B40002020F82020201805050506000088888828
:102B50009868050505060000888888502005050549
:102B60000600008888A8A8500505050600008850C2
:102B70002050880507070600FE888888502040807E
:102B8000050505060000F8102040F80309090601B4
:102B9000FF2040404080404040200109090602FFDC
:102BA0008080808080808080800309090601FF800A
:102BB000404040204040408005030306000248A8F2
:102BC00090FF43616E6E6F7420656E746572207342
:102BD00075626469723A2000022E2E004D61696EA2
:102BE000005072656865617420504C4120456E64E8
:102BF000005072656865617420504C4120426564E4
:102C0000005072656865617420504C410054656DD8
:102C10007065726174757265005072656865617483
:102C20002041425320456E640050726568656174AE
:102C300020414253204265640050726568656174AA
:102C4000204142530054656D706572617475726500
:102C5000005072656865617420414253005072658E
:102C60006865617420504C4100436F6F6C646F77EE
:102C70006E0046616E2073706565642032004661A7
:102C80006E20737065656420320046616E2073703B
:102C900065656420310046616E207370656564204F
:102CA000310042656400426564004E6F7A7A6C655B
:102CB000004E6F7A7A6C65004D61696E00436170F9
:102CC0003A0047322F47332062616420706172619D
:102CD0006D65746572730A002200656E71756575A5
:102CE00065696E672022006F6B00526573656E64C4
:102CF0003A200053544F505045442E2000507269E2
:102D00006E7465722073746F70706564206475658D
:102D100020746F206572726F72732E20466978205E
:102D2000746865206572726F7220616E64207573BD
:102D300065204D39393920746F2072657374617262
:102D4000742E202854656D706572617475726520EB
:102D500069732072657365742E20536574206974DD
:102D60002061667465722072657374617274696E35
:102D700067290A004E6F20436865636B73756D2089
:102D800077697468206C696E65206E756D62657216
:102D90002C204C617374204C696E653A20004E6F94
:102DA00020436865636B73756D2077697468206C68
:102DB000696E65206E756D6265722C204C6173744E
:102DC000204C696E653A2000636865636B73756DAE
:102DD000206D69736D617463682C204C617374207D
:102DE0004C696E653A20004C696E65204E756D62C7
:102DF0006572206973206E6F74204C617374204C6F
:102E0000696E65204E756D6265722B312C204C61A8
:102E10007374204C696E653A20004D313130004D9D
:102E200033310053442072656164206572726F72A1
:102E30000A00446F6E65207072696E74696E672057
:102E400066696C650A0046696E6973686564210A83
:102E500000206F662000205A0020590020580047AB
:102E60006F696E6720746F3A00436C6F636B7769AC
:102E700073650A00436F756E7465722D0020446996
:102E800072656374696F6E3A2000202020616E675E
:102E90006C653A20005374617274696E67207261C8
:102EA000646975733A2000506F736974696F6E6955
:102EB0006E67207468652070726F62652E2E2E0A10
:102EC000003F4E756D626572206F66206C6567739A
:102ED00020696E206D6F76656D656E74206E6F74FF
:102EE00020706C61757369626C652028302D3135F6
:102EF000292E0A003F2028582C5929206F7574204C
:102F00006F6620626F756E64732E0A003F53616DA9
:102F1000706C652073697A65206E6F7420706C61C7
:102F2000757369626C652028342D3530292E0A00AE
:102F30004D3438205A2D50726F626520526570658D
:102F400061746162696C69747920546573740A00F4
:102F50003F2856296572626F7365206C6576656CD3
:102F600020697320696D706C61757369626C65208E
:102F700028302D34292E0A00204500205A002059DF
:102F800000204D393220580020496E76616C69640A
:102F90002065787472756465722000626564002C27
:102FA0002073797374656D2073746F70706564211C
:102FB000204865617465725F49443A200042656447
:102FC0000048656174696E67206661696C656400BC
:102FD00045312048656174696E67206661696C657A
:102FE000640048656174696E67206661696C656438
:102FF00000202D20496E76616C69642065787472BA
:1030000075646572206E756D62657220210A00100C
:1030100000C90210012C014001220170011801B009
:10302000010E01F00104015002FA00B002F000307C
:1030300003E600D003DC009004D2007005C800A0B5
:1030400006BE000008B400B009AA00D00BA00060C2
:103050000E960060118C000015820020197800C0C7
:103060001D6E00A0226400B0275A00902C50000072
:10307000314600E0343C0010383200903A280060BD
:103080003C1E00A03D1400803E0A00203F00004589
:103090003120544845524D414C2052554E415741E4
:1030A000590042656400546865726D616C20527508
:1030B0006E61776179004531204572723A204D4149
:1030C0005854454D5000426564004D415854454D9B
:1030D00050207472696767657265640045312045E8
:1030E00072723A204D494E54454D5000426564007D
:1030F0004D494E54454D502074726967676572653D
:1031000064004D383420582059205A204500486129
:103110007264636F6465642044656661756C7420D5
:1031200053657474696E6773204C6F616465640ADB
:1031300000E8030000E8030000640000001027001E
:10314000000000C8430000C84300000041000048E0
:10315000420000484300004843000048440000711A
:10316000433A0A0020204D393030204B004C696E24
:1031700065617220416476616E63653A0A002020C1
:103180004D383531205A005A2D50726F6265204FEC
:1031900066667365740020204D323039205300413B
:1031A00075746F2D526574726163743A20533D30AB
:1031B00020746F2064697361626C652C2031207407
:1031C0006F20696E7465727072657420452D6F6E24
:1031D0006C79206D6F7665732061732072657472EF
:1031E0006163742F7265636F7665720A0020460012
:1031F00020570020204D3230382053005265636F35
:103200007665723A20533C6C656E6774683E204662
:103210003C756E6974732F6D3E0A00205A0020467B
:103220000020570020204D32303720530052657463
:10323000726163743A20533C6C656E6774683E201B
:10324000463C756E6974732F6D3E205A3C6C6966FE
:10325000743E0A0020440020490020204D333034C1
:1032600020500020440020490020204D33303120E0
:1032700050005049442073657474696E67733A0A4C
:103280000020460020420020480020204D313435E7
:103290002053004D6174657269616C2068656174CA
:1032A000757020706172616D65746572733A0A00A1
:1032B000204A0020204732392057204900205A0058
:1032C00020204D3432302053004175746F20426508
:1032D00064204C6576656C696E673A0A00205A0076
:1032E00020590020204D323036205800486F6D653F
:1032F000206F66667365743A0A00204A0020540005
:1033000020530020204D323035204200204A3C6AB4
:10331000756E635F6465763E00416476616E6365D9
:10332000643A20423C6D696E5F7365676D656E74CB
:103330005F74696D655F75733E20533C6D696E5FA8
:1033400066656564726174653E20543C6D696E5FAC
:1033500074726176656C5F66656564726174653E02
:103360000020540020520020204D323034205000E4
:10337000416363656C65726174696F6E2028756E58
:103380006974732F7332293A20503C7072696E74DD
:103390005F616363656C3E20523C72657472616369
:1033A000745F616363656C3E20543C747261766542
:1033B0006C5F616363656C3E0A00204500205A0023
:1033C00020590020204D3230312058004D6178695D
:1033D0006D756D20416363656C65726174696F6EB4
:1033E0002028756E6974732F7332293A0A002045BC
:1033F00000205A0020590020204D32303320580040
:103400004D6178696D756D2066656564726174657E
:10341000732028756E6974732F73293A0A005374E8
:103420006570732070657220756E69743A0A0020A9
:10343000204D3230302044300A0020204D323030D0
:103440002044002044697361626C65640A00466927
:103450006C616D656E742073657474696E67733A20
:103460000020204D3134392043203B20556E6974B3
:103470007320696E2043656C736975730A00202898
:103480006D6D29002020473231202020203B20551F
:103490006E69747320696E206D6D006F70656E00CB
:1034A000545249474745524544003A20007A5F6DDF
:1034B000696E00795F6D696E00785F6D696E0052AC
:1034C00065706F7274696E6720656E6473746F7077
:1034D000207374617475730A0043616E6E6F74209B
:1034E0006F70656E207375626469722000534420AA
:1034F00063617264206F6B0A006F70656E526F6F4C
:1035000074206661696C65640A00766F6C756D6520
:103510002E696E6974206661696C65640A005344A3
:1035200020696E6974206661696C0A004D3234004E
:103530004D32332025730000002100240027002A8B
:10354000002D003000330001010000040107010AD2
:103550000100002200250028002B002E003100343D
:103560000002010000050108010B010000200023FA
:1035700000260029002C002F00320000010000036B
:1035800001060109010505050507050808080802E7
:103590000202020A0A0808040404040101010101EC
:1035A0000101010303030303030303040707070CDB
:1035B0000C0C0C0C0C0C0C02020202060606060691
:1035C0000606060B0B0B0B0B0B0B0B01021020203E
:1035D0000808102040102040800201020108040267
:1035E00001010204081020408080402010080402DD
:1035F0000180040201804020100804020108040236
:10360000010102040810204080010204081020403B
:103610008000000A0B02090C0D0E080703040100CC
:10362000000000000000000000000000000000009A
:103630000000000000000000000000000012111057
:10364000000000000000000000000000000000007A
:10365000000000000000004D6F766520302E316DB7
:103660006D004D6F766520316D6D004D6F76652074
:1036700031306D6D004D6F7665206178697300485B
:103680006F74656E6420746F6F20636F6C640045A7
:1036900078747275646572004D6F7665205A004DBE
:1036A0006F76652059004D6F766520580043617232
:1036B000642072656D6F7665640043617264206991
:1036C0006E736572746564004275672032204665CA
:1036D000622032372052656164792E005072696E23
:1036E00074696E672E2E2E005072696E74207061A0
:1036F00075736564002E006F70656E206661696C7D
:1037000065642C2046696C653A2000005D015B0110
:1037100011241FBECFEFD1E2DEBFCDBF00E00CBF52
:1037200013E0A0E0B2E0ECEDFFE302E00BBF02C06B
:1037300007900D92AE3DB107D9F727E1AEEDB3E0AA
:1037400001C01D92A539B207E1F71BE1C7E8DBE133
:1037500000E006C021970109802FFE010F943D1C57
:10376000C638D10780E00807A9F70F9491090D9496
:10377000DC1F0C9400002F923F924F925F926F9249
:103780007F928F929F92AF92BF92CF92DF92EF92F1
:10379000FF920F931F93CF93DF93CDB7DEB7EE97D2
:1037A0000FB6F894DEBF0FBECDBF0091EA0E20E643
:1037B000029F800111240659124F8091640C80FFF2
:1037C00005C00E94103FC8010E942A4410920E04B6
:1037D00010920D048FE380930F0410920C0410924A
:1037E0000B04109206041092070410920804109221
:1037F0000904C8018C01DC012C9101962032D1F31F
:103800002E34D9F411968C9190ED980F9A3020F0C7
:103810008D3211F08B3289F4F80132969F012F5FBF
:103820003F4F808180538A3010F4F901F7CF8F0128
:103830003196D8018C918032D1F31093D30F00933D
:10384000D20F7801BFEFEB1AFB0AF80170806AE231
:1038500070E0C7010F94991F009731F0FC01319778
:1038600080818032E1F31182BDE47B120C94752FCC
:10387000F70180812FEFE21AF20A8032C9F38053F8
:103880008A3010F00C947F2F70920F0480E090E04B
:103890006AE03196DF0111972C91022E000C330B58
:1038A00020533109689FA001699F500D1124C9015F
:1038B000840F951F208120532A3058F390930C04D5
:1038C00080930B04DF0131962C912032D9F33DE433
:1038D00073121AC08E31910591F03CF48731910535
:1038E00071F08C31910581F40AC08537910564F03F
:1038F0008737910524F0803A43E0940729F4B09388
:103900000E04A0930D04A3C0C12CD12C760140E07D
:1039100050E0812C912C54018394FD0131967C91CF
:1039200071110DC050930E0440930D04C092060413
:10393000D0920704E0920804F092090488C0713222
:10394000E9F42DE472121AC080329105B9F4C092E4
:103950000604D0920704E0920804F0920904F09360
:103960000E04E0930D0463E270E0CF010F94991F01
:10397000009709F4F0C3DC011C9269C071547A31DC
:1039800008F042C09F01F90160812F5F3F4F603214
:10399000D1F320ED260F2A30E8F06E3211F42181A8
:1039A0000CC06D3211F06B3259F4218130ED320FC1
:1039B0003A3080F02E3221F4228120532A3050F008
:1039C0004115510511F00C94842FAF01415051095C
:1039D0000C94842F9F01A72FB0E01401250104C08F
:1039E000220C331C441C551C7A95D2F7C228D328CC
:1039F000E428F5282115310511F0201B01C020E035
:103A0000A252BC4F2C9304C04115510509F4AD01DD
:103A1000208121542A3110F4DF017FCF9F01F90169
:103A2000D9016D916623C1F370ED760F7A3010F4F1
:103A30009D01F5CF73ED760F7230D0F36B32C1F389
:103A4000F9012F5F3F4F60816032D1F3E5CF809164
:103A50000F048D3409F47FC3843511F40C945A2F6C
:103A6000873411F00C947F2F20910B0430910C04BB
:103A70002531310511F40C94812FBCF4243031052B
:103A80003CF4223031050CF0A6C037FF48C05FC3BC
:103A90002A30310509F4ECC02B30310509F4EDC0B2
:103AA0002430310509F053C3A5C02232310509F491
:103AB000B5C184F42D31310509F4E4C02E3131054E
:103AC00009F4F4C02C31310509F041C30E94F0BE65
:103AD0000C94812F2A35310509F416C22CF42A32B0
:103AE000310509F483C233C32B35310509F410C203
:103AF0002C35310509F02BC3E5E92E2EE2E03E2EF0
:103B0000FAE1EF2EFFE0FF2EE3E5F2E0F9ABE8ABE0
:103B1000A0ECCA2EAFE0DA2E00E010E039C28091AE
:103B20007502882311F40C94812F0E944AE1809140
:103B30005511882309F44BC085E40E94C6A488234C
:103B400009F445C088E50E94C6A4811140C089E5FA
:103B50000E94C6A481113BC08AE50E94C6A48111BF
:103B600036C08090AB0F9090AC0FA090AD0FB0908E
:103B7000AE0F20915F02309160024091610250913E
:103B80006202C501B4010F94451C6B017C0120E069
:103B900030E0A9010F94A61E87FD02C00C94DE310F
:103BA0002DEC3CEC4CEC5DEBC701B6010F949F177C
:103BB00018166CF0C701B601905820E030E040E2E2
:103BC00051E40F949F17181614F00C94882F0E943C
:103BD000E29D0C94812F80917502882311F40C943E
:103BE000812F81E02230310509F080E00E940DDC58
:103BF0000C94812F80E50E940FA5882329F00E9454
:103C000090E26B017C0103C0C12CD12C760183E5CD
:103C10000E940FA5882361F00E948FA420E030E06D
:103C20004AE754E40F9405180F94B91D6B017C0109
:103C30000E940CC78091D40F811105C060E08FED08
:103C400093E00F9427020F944301C60ED71EE81E7F
:103C5000F91E0F944301DC01CB018C199D09AE09BB
:103C6000BF09B7FD02C00C94812F0E94C33FF1CF62
:103C700081E00E949DA50C94812F80E00E949DA56B
:103C80000C94812F0E94EDBB81110C94812F8091A7
:103C9000A305882311F40C94AF2F60E08FE40E94F9
:103CA00037A581110C94812F0C94AF2F20E030E0C8
:103CB000A901609153027091540280915502909134
:103CC00056020F94461CAB01BC0188E50E9480CAD5
:103CD0006C8F7D8F8E8F9F8F20E030E044E052E428
:103CE00060915702709158028091590290915A0246
:103CF0000F94451CAB01BC0189E50E9480CA9B0161
:103D0000AC0169837A838B839C836C8D7D8D8E8DD2
:103D10009F8D0E9492DB882311F40C94812F80E008
:103D20000E94A8A70E94C9A061E085E40E9437A56F
:103D300021E0482FBE016F5F7F4FCE014C960E945D
:103D40004BBC6B017C019B01AC010F94381F8111AE
:103D50005FC08C8C9D8CAE8CBF8C20E030E0A901C4
:103D6000C501B4010F949F1787FF05C027E137EB0A
:103D700041E558EB04C027E137EB41E558E3C501C5
:103D8000B4010F94461CAB01BC0182EF93E00E948A
:103D9000134489809A80AB80BC8020E030E0A90188
:103DA000C501B4010F949F1787FF05C027E137EBCA
:103DB00041E558EB04C027E137EB41E558E3C50185
:103DC000B4010F94461CAB01BC018DEE93E00E9440
:103DD000134420E030E0A901C701B6010F949F17FA
:103DE00087FF05C027E137EB41E558EB04C027E129
:103DF00037EB41E558E3C701B6010F94461CAB0110
:103E0000BC0188EE93E00E9413448AE00E94353D95
:103E10000E94B0A00E94A6A30C94812F8091BF0F96
:103E20008370833011F00C94812F6CE070E089E492
:103E30000E941CA5182F8FEF810F8E3130F083E583
:103E400094E00E94D43E0C94812F4AE057ED63EA3F
:103E50007CE384E50E9480CA6CAB7DAB8EAB9FABEC
:103E60002AE037ED43E25CE30F94A61E87FD0CC009
:103E700020E030E040E85FE36CA97DA98EA99FA90E
:103E80000F949F17181634F485E294E00E94D43EF4
:103E90000C94812F40E050E060EA7FE381E40E94CF
:103EA00080CA6B017C0120E030E0A9010F94A61EBE
:103EB00087FF10C020E030E040E05FEBC701B601B3
:103EC0000F949F17181614F40C94B22FC701B60163
:103ED00090580EC020E030E040E05FE3C701B6013B
:103EE0000F94A61E87FF02C00C94B22FC701B60123
:103EF00020E030E040E050E40F949F17181614F0D3
:103F00000C94B72F0C94B22F10920A040C94812FAA
:103F100081E080930A040C94812F0E948FA42B01CE
:103F20003C01133049F0F6012081318142815381F7
:103F30000F94451C2B013C01A8A9B9A92D913D91D5
:103F40004D915C91C301B2010F94451C4B015C0182
:103F50002DEB37E346E855EB0F94A61E87FD20C0F6
:103F60002DEB37E346E855E3C501B4010F949F17E5
:103F70001816B4F01F5FB4E0EB0EF11CE8A9F9A924
:103F80003496F9ABE8ABF4E0CF0ED11C143039F124
:103F9000D1018D911D010E940FA5882359F3BDCF3A
:103FA000133051F440925F025092600260926102BD
:103FB0007092620201E0DECFA5019401F7016081F9
:103FC0007181828193810F94461CD7016D937D93FB
:103FD0008D939C931397812F0E94C29DCBCF01118B
:103FE0000E9487BE0E94A6A30C94812F8091750227
:103FF000882311F40C94812F89E40E940FA5082FC7
:10400000882321F00E948BA4F82E01C0F12C8AE4B1
:104010000E940FA5182F882331F00E948BA4E82E50
:10402000002359F005C0002311F40C94EE31E12C6B
:1040300022E02F1528F0112349F032E03E1530F42C
:1040400087E794E00E94D43E0C94812F0E9493A5B0
:104050000023F1F020915111309152114F2D420364
:10406000B001439F700D11248091820590918305CA
:10407000680F791F072E000C880B990B0F94A61759
:1040800060939F0F7093A00F8093A10F9093A20F46
:104090001123F1F020915311309154114E2D420310
:1040A000B001439F700D1124809184059091850586
:1040B000680F791F072E000C880B990B0F94A61719
:1040C0006093A30F7093A40F8093A50F9093A60FF6
:1040D00060E080E50E9437A58823C1F01123B1F08C
:1040E00020E030E044E052E46091A30F7091A40F0F
:1040F0008091A50F9091A60F0F94461C6093A30F7B
:104100007093A40F8093A50F9093A60F40E050E00A
:10411000BA0186E40E9480CA6B017C0120E030E095
:10412000A9010F94A61E18160CF051CD20E030E026
:1041300040E752E4C701B6010F94401D60934E0260
:1041400070934F02809350029093510240CD0E9491
:10415000DCBB0C94812F80910B0490910C04883768
:10416000910509F442C70CF038C18C34910509F46B
:1041700013C50CF05DC08931910509F40FC31CF51E
:104180008431910509F4B8C27CF48131910509F4B8
:10419000A3C22CF4029708F42BC20C94572F429719
:1041A00009F436C60C94572F8631910509F4CEC216
:1041B0000CF4C8C28731910509F4D1C2489709F4BB
:1041C000E1C20C94572F8E31910509F46BC3ACF406
:1041D0008B31910509F409C30CF4F9C28C319105B6
:1041E00009F456C34D9711F00C94572F80913F144A
:1041F0008E7F80933F140C94812F8A32910509F4AD
:10420000A4C44CF48F31910509F4F4C3809709F4E8
:10421000ABC30C94572F8033910509F4B9C48B3488
:10422000910511F00C94572F0E94825A0C94812F03
:104230008B36910509F4C0C5D4F58435910509F490
:10424000E7C5E4F48135910509F4C9C54CF48D3412
:10425000910511F00C94572F0E94A65A0C94812FAF
:104260008235910509F4D0C58335910511F00C9480
:10427000572F81E0809301040C94812F883691059B
:1042800009F49FC454F48535910509F4C5C58C35EE
:10429000910509F4DCC50C94572F8936910509F472
:1042A00038C58A36910509F46FC50C94572F8037AD
:1042B000910509F408C584F48D36910509F4A5C467
:1042C0000CF4FBC48E36910509F4A3C48F36910516
:1042D00009F4B2C40C94572F8537910509F44BC6E5
:1042E0000CF06EC08237910509F440C68337910502
:1042F00011F00C94572F89EB96E00E94D43E60E0B9
:1043000089EA96E00E942DE160E084E996E00E944F
:104310002DE161E08DE896E00E942DE161E082E808
:1043200096E00E942DE161E082E796E00E942DE197
:1043300060E089E696E00E942DE161E08FE596E07D
:104340000E942DE161E085E596E00E942DE161E0AB
:104350008DE496E00E942DE161E08FE396E00E94FB
:104360002DE160E081E396E00E942DE160E082E2D1
:1043700096E00E942DE160E084E196E00E942DE14C
:1043800060E08EEF95E00E942DE160E08DEE95E01B
:104390000E942DE160E08EED95E00E942DE160E04D
:1043A00089EC95E00E942DE161E086EB95E00E94AA
:1043B0002DE160E089EA95E00E942DE10C94812FC7
:1043C0008637910509F4DFC58737910511F00C9404
:1043D000572F0E94FAEF0C94812F8D32A1E09A079B
:1043E00011F40C94F32B0CF06FC08D3C910509F483
:1043F00022C7B4F58E3B910509F487C4E4F48C38E8
:10440000910509F464C46CF48937910511F00C949A
:10441000572F10929E0F10929D0F0E941BF00C942C
:10442000812F8139910509F4E8C58B39910509F48B
:1044300083C40C94572F893C910509F486C634F443
:10444000883C910509F434C60C94572F8B3C910598
:1044500009F49EC68C3C910509F4B9C60C94572FFB
:10446000833D910509F4B8C784F48F3C910509F4A4
:1044700018C70CF4F3C6803D910509F456C7813D79
:10448000910509F49CC70C94572F823E910511F4B5
:104490000C94052B64F48C3D910511F40C94A22A24
:1044A0008D3D910511F40C94AF2A0C94572F88314F
:1044B000E1E09E0711F40C94502B8C32914011F4E2
:1044C0000C94DE2B0C94572F8C3A21E0920711F4B8
:1044D0000C94A32D0CF042C0813941E0940711F4F3
:1044E0000C942D2DC4F48F32B1E09B0711F40C9481
:1044F0002A2D14F40C94E62C8033F1E09F0711F47C
:104500000C94732C8039914011F00C94572F0E9419
:104510000CC70C94812F843A31E0930711F40C946A
:10452000392D7CF48239A1E09A0711F40C94332DD3
:104530008A39914011F00C94572F0E94143B0C942F
:10454000812F853AE1E09E0711F40C943C2D863AC8
:10455000914011F40C94E42E0C94572F883F21E0E5
:10456000920711F40C944E2E1CF5853F41E0940700
:1045700011F40C94482E4CF4843F914011F00C94AB
:10458000572F0E940B500C94812F863FE1E09E072D
:1045900011F40C944B2E873F914011F00C94572F3F
:1045A00061E083E50E9437A50E9464F10C94812F9D
:1045B000843823E0920711F40C94A42E6CF48C3010
:1045C00042E0940711F40C945F2E8335934011F46C
:1045D0000C94672E0C94572F803AB3E09B0709F494
:1045E000F9C1873E934011F40C94492F0C94572F36
:1045F000A0900D04B0900E0480E50E940FA58823C2
:1046000059F00E9490E26B017C0111E0672B682B4E
:10461000692B31F410E004C010E0C12CD12C7601DC
:1046200083E50E940FA5882311F40C94D7300E94D3
:104630008FA420E030E04AE754E40F9405180F946B
:10464000B91D6B017C0111110BC0672B682B692B05
:1046500039F4A114B10421F0D5018C91811102C06B
:1046600010E001C011E00E940CC7112329F061E0A5
:10467000C5010F94610205C060E086E994E00F94E3
:10468000270281E080937115C114D104E104F10483
:10469000B1F00F944301C60ED71EE81EF91E0F9409
:1046A0004301DC01CB018C199D09AE09BF09B7FF9D
:1046B0000DC08091711581110C94DC3007C0809180
:1046C0007115882319F00E94C33FF9CF0F94870218
:1046D000109271150C94812F60E089EA94E00F9498
:1046E00027025F988A988091080181708093060163
:1046F000479812980C94812F81EC94E00E94D43E4C
:1047000010922D0D86E092E10E94FF8C8BE1E6E095
:10471000F2E1DE01119601900D928A95E1F740E0F9
:1047200050E0BE016F5F7F4F80E090E00E94DDF8B7
:10473000CE0101960E94048D82EB94E00E94D43E4B
:104740000C94812F0E946CF50C94812F0E94927220
:1047500080913F14877F80933F140C94812F809128
:104760000D0490910E04FC012081222329F02032B7
:1047700009F410823196F8CF40E061E00E94A17206
:104780000C94812F0E945CD3882321F00E940E7428
:104790000E94825A0F9487020C94812F80913F14BB
:1047A00082FF03C08B7F80933F148091810581300D
:1047B00089F782E0809381050F94430160937D0522
:1047C00070937E0580937F0590938005E3CF809161
:1047D0003F1483FD02C00C94812F83E50E940FA536
:1047E00081110C94E0300C94812F83E40E94C6A4C4
:1047F000882319F18CED94E00E94D43E8091B01191
:10480000882391F0BE016F5F7F4F8DEA91E10E9496
:10481000C68B8E010F5F1F4FF80181918F01882396
:1048200039F00E94353DF8CF82ED94E00E94D43EED
:104830008AE00E94353D0C94812F80913F1482FFC5
:1048400021C08BEE94E00E94D43E60913B147091A5
:104850003C1480913D1490913E144AE00E94FB422A
:104860008FE20E94353D6091371470913814809129
:10487000391490913A144AE00E94FB420E94244469
:104880000C94812F8DEF94E00E94D43E0C94812FE4
:1048900040E060E080910D0490910E040E94A172AE
:1048A0000C94812F80913F1483FD02C00C94812FC2
:1048B0000E94C5BB60910D0470910E0480913F145D
:1048C00083FD02C00C94812FCE014C960F944607B5
:1048D0008C01009711F40C94812F6C8D7D8D1982C1
:1048E0001C8222E0AC01CE0101960E94349181111C
:1048F00002C0F12C14C0CE0101960F94B406882397
:10490000C1F361E0CE0101960E94AA8B009789F362
:1049100025EEDC012C931C820E9482F6F82ECE013B
:1049200001960E94048DB801FF2089F088E295E08D
:104930000E94F93E8AE00E94353D10923B1410928D
:104940003C1410923D1410923E140C94812F80E17F
:1049500095E00E94F93E8EE095E00E94D43E8AE008
:104960000E94353D0C94812F80913F1482FD0E945E
:104970000CC780913F1483FD02C00C94812F60E02E
:1049800080E50E9437A5182F482F61E080910D0423
:1049900090910E040E94A17283E50E940FA58823C6
:1049A00081F00E9457A4AB01BC0140933B1450938B
:1049B0003C1460933D1470933E148DEA91E10E9483
:1049C000B78A0E940E7411110C94812F0E94825A92
:1049D0000C94812F20910D0430910E0490913F147E
:1049E000926090933F1440E060E0C9010E94A17280
:1049F0000C94812F0E94335A7B018C0120E831E511
:104A000041E050E00F94A61BC9016DE671E00F94E0
:104A1000151C4B015C01C801B70120E13EE040E0FC
:104A200050E00F94A61BCA01B90128E130E040E034
:104A300050E00F94A61B762E672EC62ED72E7CE351
:104A4000272E312C412C512CC801B701A201910114
:104A50000F94A61BF62EE72ECA01B901A2019101FF
:104A60000F94A61BCB018E010F5F1F4F8114910481
:104A700099F0EF92FF927F936F936F927F92BF9224
:104A8000AF929F928F928EE595E09F938F931F93A5
:104A90000F930F94371713C0A114B104B1F0EF9224
:104AA000FF927F936F936F927F92BF92AF928EE44B
:104AB00095E09F938F931F930F930F9437170FB623
:104AC000F894DEBF0FBECDBF30C0CD2879F0EF9295
:104AD000FF927F936F936F927F9282E495E09F9312
:104AE0008F931F930F930F943717E9CF892B69F09A
:104AF000EF92FF927F936F938AE395E09F938F935A
:104B00001F930F930F943717DACFEF92FF9286E33C
:104B100095E09F938F931F930F930F9437170F90E8
:104B20000F900F900F900F900F9060E0C8010F94BE
:104B300061020E94103FB80182E795E00E94F93EB1
:104B40008AE00E94353D0C94812F83E50E940FA5D9
:104B5000882311F40C94812F0E9467A4F82E6DE035
:104B600070E080E50E941CA58C0197FF02C00C94A8
:104B7000812FE82E60E089E40E9437A581110C9412
:104B8000F130802F0F94520981115CC50C94F130E3
:104B90000E94A0E20C94812F80918105813011F058
:104BA0000C94812F82E0809381050F9443016093E0
:104BB0007D0570937E0580937F05909380050C940E
:104BC000812F8091640C83FF02C00C94812F0E947E
:104BD000CDE187FF02C00C94812F83E50E940FA5D1
:104BE000882379F00E948FA40F94B21D8B01CB0112
:104BF0000E9425920635110524F40E94A65A0F94AE
:104C000087020E94E3C50C94812F0E9478D10C94F6
:104C1000812F8EE40E940FA5882311F40C94812F1C
:104C20000E9457A46093F50F7093F60F8093F70FCF
:104C30009093F80F0C94812F83E50E94C6A48823DB
:104C400031F060E083E50E942BA58093640C0E9404
:104C5000103F8DE895E00E94D43E8091640C88233B
:104C600049F163E8E62E65E0F62E00E010E020E072
:104C70008091640C90E0002E02C0959587950A946F
:104C8000E2F780FF0EC0DD24D394D20E222319F068
:104C90008CE20E94353DF701859194910E94D43EAB
:104CA0002D2D0F5F1F4FB2E0EB0EF11C05301105EB
:104CB000F9F6BECD8FE795E0B9CD1092711510923F
:104CC00036020C94812F80E090E00E94143F809186
:104CD000640C83FF02C00C94812F83E50E940FA512
:104CE000882311F40C94812F0E948FA40F94B21D7D
:104CF0006337710514F063E770E070934C156093AF
:104D00004B150E9452E70C94812F0E94B0CF0C9457
:104D1000812F0E94CDE1182F87FF02C00C94F23141
:104D200084E995E00E94D43E812F0E9436928AE069
:104D30000E94353D0C94F23183E50E940FA5882333
:104D400011F40C94812F0E9467A4182F90E0CD9746
:104D50000CF01CE31093FD030F9443016B017C01E5
:104D6000212F30E0A8EEB3E00F94FA1BC60ED71E39
:104D7000E81EF91EC092F903D092FA03E092FB03F9
:104D8000F092FC030C94812F60E080E50E942BA53B
:104D900081110C94812F6FEF70E083E50E941AE17E
:104DA0008F3F910519F010F08FEF90E08093C405CC
:104DB000809341150C94812F60E080E50E942BA523
:104DC000823010F00C94812F90E0FC01EC53FA4FEC
:104DD0001082FC01EF5BFA4E10820C94812F0E942E
:104DE000D9E70E94A65A0E945AC80E94453B68EE25
:104DF00073E080E090E00E94F03A60E087E995E09F
:104E00000F9427020C94812F109201040C94812F8F
:104E10000E94F6E10C94812F83E50E94C6A48823AA
:104E200011F40C94812F0E948FA420E030E04AE717
:104E300054E40F9405180F94B91D60930204709305
:104E4000030480930404909305040C94812F0E9422
:104E5000CDE187FF02C00C94812F9091060494FD50
:104E600004C09091080497FF0AC045E9842E42E0EF
:104E7000942E55E6A52E5CE0B52E10E00AC0909168
:104E80000904937091F7682F81E00E9455E20C9419
:104E9000812FF40181914F010E940FA5882309F40D
:104EA0005BC0133009F04FC00E948FA46B017C01DE
:104EB00020E030E040EA51E40F949F1787FF3AC0AA
:104EC000A70196016091850C7091860C8091870CEA
:104ED0009091880C0F94401D2B013C019B01AC016B
:104EE0006091950C7091960C8091970C9091980C14
:104EF0000F9405186093950C7093960C8093970C03
:104F00009093980C6091B4057091B5058091B605A9
:104F10009091B7050F94A417A30192010F9405185F
:104F20000F94B91D6093B4057093B5058093B605D1
:104F30009093B705C092850CD092860CE092870CB6
:104F4000F092880C09C00E948FA4D50154966D93ED
:104F50007D938D939C9357971F5FB4E0AB0EB11C6C
:104F6000143009F096CF0E948AC6CBC70E940CC7A6
:104F70000E94A6A3C6C760E080910D0490910E0424
:104F80000F946102BEC700910D0410910E0483E0DE
:104F9000F12C40E08150E1F0F8019081292F2B7F26
:104FA0002134C1F721812133A9F7913421F09534BF
:104FB00021F441E002C0FF24F39498012E5F3F4F9B
:104FC00089012F5F3F4FD8019C919032C9F3E2CF06
:104FD00041110E94103FFF2021F088E897E00E94D5
:104FE000D43EC8010E942A448CC781E080939E0F62
:104FF00080939D0F0E941BF084C760E070E083E502
:105000000E941CA58C011127023011053CF00E9462
:105010000C3F8CE897E00E94D43E73C788E40E945E
:105020000FA58823A9F00E948BA48A3A91053CF031
:105030008A30B1E09B072CF089E091E002C08AEA57
:1050400090E0F801EE0FFF1FE458FE4E918380833D
:1050500086E40E940FA5882381F00E948BA497FD0F
:1050600007C08F3F910529F024F08FEF90E001C039
:1050700080E0F801EA58FE4E808382E40E940FA58A
:10508000882309F43EC70E948BA48530910534F033
:10509000843791052CF083E790E002C085E090E032
:1050A000000F111FF801E858FE4E9183808329C735
:1050B0000E94CDE1182F87FD24C784E40E94C6A476
:1050C000882309F43FC00E948FA46B017C0101E09A
:1050D00020E030E0A9010F949F17811101C000E08A
:1050E0000093EC0F20E030E0A901C701B6010F9456
:1050F0009F17882339F10E948FA424E01202F00147
:105100001124EF50F04F608371838283938320E0FA
:1051100030E0A9016091F10F7091F20F8091F30FCF
:105120009091F40F0F949F1781110CC080E090E0D4
:10513000A0EEBFE38093F10F9093F20FA093F30FD3
:10514000B093F40F0E9484C1DCC60E94CDE187FDBC
:10515000D8C695E9E92E92E0F92E05E61CE0D701C4
:105160008D917D010E94C6A4882349F00E948FA4DE
:105170000F94B91DF80160837183828393830C5F60
:105180001F4FFCE005371F0751F70E9413C6B9C631
:105190000E94CDE187FDB5C685E9E82E82E0F82EB4
:1051A00005E61CE0D7018D917D010E94C6A48823ED
:1051B00039F00E948FA4F80164A375A386A397A376
:1051C0000C5F1F4FFCE005371F0761F79AC68091FF
:1051D000070487FF02C00C940A31809108048E7086
:1051E00011F00C940A314091990C50919A0C6091F5
:1051F0009B0C70919C0C84EB97E00E9413444091AF
:105200009D0C50919E0C60919F0C7091A00C81EBB5
:1052100097E00E9413444091A10C5091A20C609120
:10522000A30C7091A40C8EEA97E00E9413448AE0CC
:105230000E94353D66C68091060481FF02C00C9431
:1052400050318091070481FF02C00C94503180914D
:1052500008048C7011F00C94503153C615E9C12E1E
:1052600012E0D12E0DE5E02E0DE0F02E10E0D6017B
:105270008D916D010E94C6A4882351F00E948FA4D5
:10528000F7016083718382839383812F0E94C29D83
:105290001F5FF4E0EF0EF11C133011F40C94F21FB9
:1052A000E6CF83E50E94C6A4882351F00E948FA414
:1052B0006093561170935711809358119093591120
:1052C00086E40E94C6A4882381F00E948FA420E077
:1052D00030E040E752E40F94401D60935A11709300
:1052E0005B1180935C1190935D118AE50E94C6A4C6
:1052F000882351F00E948FA460935E1170935F1118
:10530000809360119093611187E50E94C6A4882361
:1053100009F4F7C50E948FA460936A1170936B1112
:1053200080936C1190936D11ECC583E50E94C6A427
:10533000882351F00E948FA46093621170936311CF
:10534000809364119093651186E40E94C6A488231B
:1053500081F00E948FA420E030E040E752E40F94F7
:10536000401D60936611709367118093681190934C
:10537000691182E50E94C6A4882381F00E948FA44F
:1053800020E030E040E752E40F94401D609372113A
:1053900070937311809374119093751187E50E9437
:1053A000C6A4882309F4ADC50E948FA460936E1132
:1053B00070936F118093701190937111A2C583E562
:1053C0000E94C6A4882309F49CC50E947BA48093F4
:1053D00055110E9447E195C50E94103F8AE098E070
:1053E0000E94D43E83E50E94C6A4882321F00E9437
:1053F0007BA48093370280913702882319F087EECF
:1054000097E002C083EE97E00E94D43E82E098E0ED
:105410000E94D43E2091C00F3091C10F4091C20F25
:105420005091C30F60910E0F70910F0F8091100F6C
:105430009091110F0F94461CAB01BC0180E098E0E5
:105440000E9413442091C40F3091C50F4091C60FA4
:105450005091C70F6091120F7091130F8091140F2C
:105460009091150F0F94461CAB01BC018DEF97E096
:105470000E9413442091C80F3091C90F4091CA0F68
:105480005091CB0F6091160F7091170F8091180FEC
:105490009091190F0F94461CAB01BC018AEF97E065
:1054A0000E94134482EF97E00E94D43E2091C00FE7
:1054B0003091C10F4091C20F5091C30F60913A02D9
:1054C00070913B0280913C0290913D020F94461CEA
:1054D000AB01BC0180EF97E00E9413442091C40F00
:1054E0003091C50F4091C60F5091C70F60913E0299
:1054F00070913F0280914002909141020F94461CAE
:10550000AB01BC018DEE97E00E9413442091C80FBF
:105510003091C90F4091CA0F5091CB0F6091420258
:105520007091430280914402909145020F94461C71
:10553000AB01BC018AEE97E00E9413448AE00E940E
:10554000353DDFC483E50E940FA5882309F4D9C443
:105550000E948BA49093390280933802D2C40E9497
:10556000CDE1F82E87FDCDC483E50E940FA50F2D58
:105570000F2C000C110B882369F10E948BA4F801F9
:10558000EE0FFF1FED59FD4F91838083000F111F18
:10559000000F111F98012A5D3D4F7901BC01990F41
:1055A000880B990B0F94A6172AE037ED43E25CE3D2
:1055B0000F940518F801E351F04F208131814281A9
:1055C00053810F940518D7016D937D938D939C9310
:1055D000139797C40E94103F85E40E94353D80E3F5
:1055E0008F0D0E94353D000F111FF801ED59FD4F41
:1055F000608171818AE198E00E94914385E20E9476
:10560000353D8AE00E94353D7CC480E50E94C6A4F9
:10561000882309F476C460E070E080E50E941CA550
:10562000F82E6FEF7FEF83E50E941CA58C01019699
:10563000039708F066C4F7FC64C48F2D0F945209D9
:10564000882339F00E940C3F82E298E00E94D43E09
:1056500058C40E940CC760E08F2D0F9404000F3FC8
:10566000BFEF1B0731F00130110571F000E010E0D1
:105670000DC08F2D0E94ACFF31E020E0892B09F096
:1056800030E0032F122F02C001E010E08F2D0E94A6
:10569000ACFF8017910709F434C40E94C33FF6CFD2
:1056A00080E50E94C6A4882309F42BC40E948BA421
:1056B0008C01892B09F076C083E50E94C6A488235B
:1056C00041F00E948BA4BC018EE892E10E94803BD5
:1056D00018C40E94103F60E070E08AE498E00E94E5
:1056E00091438091901228E532E06901C81AD108EF
:1056F00087FDD394CC0CDD1CCC0CDD1C0D2C000CD8
:10570000EE08FF0880918F1228E830E04901881ADE
:10571000910887FD9394880C991C880C991C092C7E
:10572000000CAA08BB0880918E128F3FC1F090E058
:10573000FC01EE0FFF1F8E0F9F1FFC01EF5DFD4E62
:105740002181328153E0220F331F5A95E1F764E043
:10575000369527956A95E1F72E5F3F4F02C020E00E
:1057600030E02F5F3F4FC901330FAA0BBB0B9C01E9
:10577000AD01281939094A095B09A4EBB0E00F947F
:10578000E71BA7019601281939094A095B090F94FB
:10579000C81BB90187E498E00E9491438AE00E9407
:1057A000353DAFC30E940C3FB80180E498E00E94F1
:1057B000914381E398E00E94D43EA3C364E071E08A
:1057C00083E50E941AE18C0168EE73E080E50E9497
:1057D0001AE18938E3E19E0710F088E893E1B80107
:1057E0000F94FA018EC360E085E40E942BA581111D
:1057F00073C080E50E94C6A4882351F00E948FA444
:105800006093E2057093E3058093E4059093E505CA
:1058100089E40E94C6A4882381F00E948FA42CEA08
:1058200035EC47E25EE30F9405186093E60570934C
:10583000E7058093E8059093E90584E40E94C6A4F7
:10584000882381F00E948FA42CEA35EC47E25EE3C6
:105850000F94401D6093EA057093EB058093EC056F
:105860009093ED050E94103F4091E2055091E305B1
:105870006091E4057091E5058CE698E00E94134480
:105880002CEA35EC47E25EE36091E6057091E705AE
:105890008091E8059091E9050F94401DAB01BC0192
:1058A00088E698E00E9413442CEA35EC47E25EE378
:1058B0006091EA057091EB058091EC059091ED0502
:1058C0000F940518AB01BC0184E698E00E941344D4
:1058D0008AE00E94353D15C30E940C3F82E598E0A6
:1058E0000E94D43E0EC380E50E94C6A4882351F0D6
:1058F0000E948FA460934E1570934F15809350159E
:105900009093511589E40E94C6A4882381F00E94D7
:105910008FA42CEA35EC47E25EE30F940518609300
:10592000521570935315809354159093551584E434
:105930000E94C6A4882381F00E948FA42CEA35EC33
:1059400047E25EE30F94401D609356157093571520
:1059500080935815909359150E94103F40914E1511
:1059600050914F15609150157091511588E798E04E
:105970000E9413442CEA35EC47E25EE36091521535
:105980007091531580915415909155150F94401DA9
:10599000AB01BC0184E798E00E9413442CEA35EC8B
:1059A00047E25EE360915615709157158091581546
:1059B000909159150F940518AB01BC0180E798E050
:1059C0000E9413448AE00E94353D9BC283E50E94F9
:1059D000C6A4182F882371F00E948FA40F94B21DC3
:1059E00070932B0260932A0221E0672B09F020E0DC
:1059F0002093D60580E50E94C6A4882359F0209103
:105A00002A0230912B02232B11F00E947BA4809359
:105A1000D60577C2111175C20E94103F88E998E03F
:105A20000E94D43E8091D605882319F080E898E042
:105A300002C08CE798E00E94D43E60912A027091E7
:105A40002B0287E898E00E94914383E898E00E9447
:105A5000D43E57C20E9497CA54C281E00E9406C336
:105A60000E94A6A34EC280E00E9406C30E94A6A385
:105A700048C20E94E8AC45C26FEF7FEF89E40E9404
:105A80001CA5182F6FEF7FEF8AE40E941CA5082F3A
:105A90008AE50E94C6A4F82E811105C081E50E9406
:105AA000C6A4D82E01C0D12C17FD06C007FD04C026
:105AB000F11009C0D11007C00E940C3F8AEC98E099
:105AC0000E94D43E1EC2133010F4033038F00E94FE
:105AD0000C3F8BEA98E00E94D43E13C2E12E110FD6
